:020000040000FA
:020000001729BE
:040002000034003492
:08000800A000030EA100210E6F
:100010008300A00E200E09004630A2000E30A3007F
:10002000A20B1328A30B10281528000008000F307E
:10003000A200A20B19281C2808003030A200A20B35
:100040001F2822280800AE30A2000530A300A20B12
:100050002A28A30B27282C28000008008E30A20095
:100060000230A300A20B3528A30B27283728000055
:100070000800051405100800051239200512392062
:1000800005163920051639200512392005123920A8
:10009000051239200512392085168512080005122F
:1000A000392005123920051639200512392005128C
:1000B00039200512392005123920051239208516FC
:1000C000851208000516392005123920051239203D
:1000D0000512392005123920051239200512392060
:1000E00005123920851685120800051239200512DF
:1000F0003920051239200512392005123920051240
:10010000392005123920051239208516851208007C
:10011000051639200516392005163920051639200F
:10012000051239200512392005123920051239200F
:10013000851685120800051239200512392005168A
:1001400039200512392005123920051239200512EF
:10015000392005123920851685120800051239202C
:1001600005123920051239200516392005123920CB
:1001700005123920051239200512392085168512FD
:100180000800A400A40D0318C82805123920CA28A5
:1001900005163920A40D0318D02805123920D228BD
:1001A00005163920A40D0318D82805123920DA289D
:1001B00005163920A40D0318E02805123920E2287D
:1001C0000516392005163920051639200512392063
:1001D0000512392085168512A40D0318F228051280
:1001E0003920F42805163920A40D0318FA28051221
:1001F0003920FC2805163920A40D03180229051200
:100200003920042905163920A40D03180A290512DE
:1002100039200C29051639200516392005163920F4
:10022000051239200512392085168512080083161B
:10023000003085009F010430810000308B00831264
:10024000073099000C203C2023203C201D203C201E
:100250001D204F201D204F2062201D20752088204A
:100260001D20752017209B202E2075201D20AE20DC
:100270001D2023204130C1201D204230C1201D20DF
:100280005230C1201D204130C1201D204130C120ED
:100290001D204F30C1201D202030C1201D204230A4
:1002A000C1201D204930C1201D205230C1201D20F9
:0A02B0004C30C1201D2000005B2926
:02400E00A43FCD
:00000001FF
